{
  "contractName": "Auction",
  "abi": [
    {
      "inputs": [
        {
          "internalType": "uint256",
          "name": "_biddingTime",
          "type": "uint256"
        },
        {
          "internalType": "uint256",
          "name": "_MSP",
          "type": "uint256"
        },
        {
          "internalType": "string",
          "name": "_productname",
          "type": "string"
        }
      ],
      "payable": false,
      "stateMutability": "nonpayable",
      "type": "constructor"
    },
    {
      "anonymous": false,
      "inputs": [
        {
          "indexed": false,
          "internalType": "address",
          "name": "winner",
          "type": "address"
        },
        {
          "indexed": false,
          "internalType": "uint256",
          "name": "amount",
          "type": "uint256"
        }
      ],
      "name": "AuctionEnded",
      "type": "event"
    },
    {
      "anonymous": false,
      "inputs": [
        {
          "indexed": false,
          "internalType": "address",
          "name": "bidder",
          "type": "address"
        },
        {
          "indexed": false,
          "internalType": "uint256",
          "name": "amount",
          "type": "uint256"
        }
      ],
      "name": "HighestBidIncreased",
      "type": "event"
    },
    {
      "constant": true,
      "inputs": [],
      "name": "auctionEndTime",
      "outputs": [
        {
          "internalType": "uint256",
          "name": "",
          "type": "uint256"
        }
      ],
      "payable": false,
      "stateMutability": "view",
      "type": "function"
    },
    {
      "constant": true,
      "inputs": [],
      "name": "farmer",
      "outputs": [
        {
          "internalType": "address payable",
          "name": "",
          "type": "address"
        }
      ],
      "payable": false,
      "stateMutability": "view",
      "type": "function"
    },
    {
      "constant": true,
      "inputs": [],
      "name": "highestBid",
      "outputs": [
        {
          "internalType": "uint256",
          "name": "",
          "type": "uint256"
        }
      ],
      "payable": false,
      "stateMutability": "view",
      "type": "function"
    },
    {
      "constant": true,
      "inputs": [],
      "name": "highestBidder",
      "outputs": [
        {
          "internalType": "address",
          "name": "",
          "type": "address"
        }
      ],
      "payable": false,
      "stateMutability": "view",
      "type": "function"
    },
    {
      "constant": false,
      "inputs": [
        {
          "internalType": "uint256",
          "name": "k",
          "type": "uint256"
        }
      ],
      "name": "bid",
      "outputs": [
        {
          "internalType": "uint256",
          "name": "_highestBid",
          "type": "uint256"
        }
      ],
      "payable": false,
      "stateMutability": "nonpayable",
      "type": "function"
    },
    {
      "constant": false,
      "inputs": [],
      "name": "auctionSTATUS",
      "outputs": [],
      "payable": false,
      "stateMutability": "nonpayable",
      "type": "function"
    }
  ],
  "bytecode": "0x608060405234801561001057600080fd5b5060405161078b38038061078b8339818101604052606081101561003357600080fd5b8101908080519060200190929190805190602001909291908051604051939291908464010000000082111561006757600080fd5b8382019150602082018581111561007d57600080fd5b825186600182028301116401000000008211171561009a57600080fd5b8083526020830192505050908051906020019080838360005b838110156100ce5780820151818401526020810190506100b3565b50505050905090810190601f1680156100fb5780820380516001836020036101000a031916815260200191505b50604052505050336000806101000a81548173ffffffffffffffffffffffffffffffffffffffff021916908373ffffffffffffffffffffffffffffffffffffffff160217905550824201600181905550816003819055508060059080519060200190610168929190610171565b50505050610216565b828054600181600116156101000203166002900490600052602060002090601f016020900481019282601f106101b257805160ff19168380011785556101e0565b828001600101855582156101e0579182015b828111156101df5782518255916020019190600101906101c4565b5b5090506101ed91906101f1565b5090565b61021391905b8082111561020f5760008160009055506001016101f7565b5090565b90565b610566806102256000396000f3fe608060405234801561001057600080fd5b50600436106100625760003560e01c8063454a2ab3146100675780634b449cba146100a9578063780a97ef146100c757806391f90157146100d1578063d57bde791461011b578063d811fcf014610139575b600080fd5b6100936004803603602081101561007d57600080fd5b8101908080359060200190929190505050610183565b6040518082815260200191505060405180910390f35b6100b1610333565b6040518082815260200191505060405180910390f35b6100cf610339565b005b6100d96104e0565b604051808273ffffffffffffffffffffffffffffffffffffffff1673ffffffffffffffffffffffffffffffffffffffff16815260200191505060405180910390f35b610123610506565b6040518082815260200191505060405180910390f35b61014161050c565b604051808273ffffffffffffffffffffffffffffffffffffffff1673ffffffffffffffffffffffffffffffffffffffff16815260200191505060405180910390f35b60006001544211156101fd576040517f08c379a00000000000000000000000000000000000000000000000000000000081526004018080602001828103825260168152602001807f41756374696f6e20616c726561647920656e6465642e0000000000000000000081525060200191505060405180910390fd5b6003548211610274576040517f08c379a000000000000000000000000000000000000000000000000000000000815260040180806020018281038252601e8152602001807f546865726520616c7265616479206973206120686967686572206269642e000081525060200191505060405180910390fd5b33600260006101000a81548173ffffffffffffffffffffffffffffffffffffffff021916908373ffffffffffffffffffffffffffffffffffffffff160217905550816003819055507ff4757a49b326036464bec6fe419a4ae38c8a02ce3e68bf0809674f6aab8ad30033600354604051808373ffffffffffffffffffffffffffffffffffffffff1673ffffffffffffffffffffffffffffffffffffffff1681526020018281526020019250505060405180910390a16003549050919050565b60015481565b6001544210156103b1576040517f08c379a00000000000000000000000000000000000000000000000000000000081526004018080602001828103825260168152602001807f41756374696f6e206e6f742079657420656e6465642e0000000000000000000081525060200191505060405180910390fd5b600660009054906101000a900460ff1615610434576040517f08c379a000000000000000000000000000000000000000000000000000000000815260040180806020018281038252601a8152602001807f41756374696f6e2068617320616c726561647920656e6465642e00000000000081525060200191505060405180910390fd5b6001600660006101000a81548160ff0219169083151502179055507fdaec4582d5d9595688c8c98545fdd1c696d41c6aeaeb636737e84ed2f5c00eda600260009054906101000a900473ffffffffffffffffffffffffffffffffffffffff16600354604051808373ffffffffffffffffffffffffffffffffffffffff1673ffffffffffffffffffffffffffffffffffffffff1681526020018281526020019250505060405180910390a1565b600260009054906101000a900473ffffffffffffffffffffffffffffffffffffffff1681565b60035481565b6000809054906101000a900473ffffffffffffffffffffffffffffffffffffffff168156fea265627a7a7231582089aa524eef88211d20b05e6dd80b55b12eb80604d5308c06dd110f45a9ad089b64736f6c63430005100032",
  "source": "pragma solidity >=0.4.22 <0.9.0;\r\n\r\n//pragma solidity >=0.4.22 <0.6.0;\r\n\r\ncontract Auction {\r\n\r\n    address payable public farmer;\r\n    uint public auctionEndTime;\r\n    address public highestBidder;\r\n    uint public highestBid;\r\n    uint MSP;\r\n    string productname;\r\n    \r\n    // mapping(address => uint) pendingReturns;\r\n    bool ended;\r\n\r\n   \r\n    event HighestBidIncreased(address bidder, uint amount);\r\n    event AuctionEnded(address winner, uint amount);\r\n\r\n\r\n    constructor(\r\n        uint _biddingTime,\r\n        //address payable _beneficiary,\r\n        uint _MSP,\r\n        string memory _productname\r\n    ) public {\r\n        farmer = msg.sender;\r\n        auctionEndTime = block.timestamp + _biddingTime;\r\n        highestBid = _MSP;\r\n        productname = _productname;\r\n    }\r\n\r\n\r\n    function bid(uint k) public returns (uint _highestBid) {\r\n \r\n        require(\r\n            block.timestamp <= auctionEndTime,\r\n            \"Auction already ended.\"\r\n        );\r\n\r\n  \r\n        require(\r\n            k > highestBid,\r\n            \"There already is a higher bid.\"\r\n        );\r\n\r\n        highestBidder = msg.sender;\r\n        highestBid = k;\r\n        emit HighestBidIncreased(msg.sender, highestBid);\r\n        return highestBid;\r\n    }\r\n\r\n    /// Withdraw a bid that was overbid.\r\n    // function withdraw() public returns (bool) {\r\n    //     uint amount = pendingReturns[msg.sender];\r\n    //     if (amount > 0) {    \r\n    //         pendingReturns[msg.sender] = 0;\r\n    //         if (!msg.sender.send(amount)) {\r\n    //             pendingReturns[msg.sender] = amount;\r\n    //             return false;\r\n    //         }\r\n    //     }\r\n    //     return true;\r\n    // }\r\n\r\n    function auctionSTATUS() public {\r\n      \r\n        require(block.timestamp >= auctionEndTime, \"Auction not yet ended.\");\r\n        require(!ended, \"Auction has already ended.\");\r\n\r\n      \r\n        ended = true;\r\n        emit AuctionEnded(highestBidder, highestBid);\r\n        // beneficiary.transfer(highestBid);\r\n    }\r\n}",
  "sourcePath": "C:/Users/Shantanu/farmer-auction/contracts/hello.sol",
  "compiler": {
    "name": "solc",
    "version": "0.5.16+commit.9c3226ce.Emscripten.clang"
  },
  "schemaVersion": "3.3.3",
  "updatedAt": "2021-03-01T10:57:19.517Z",
  "devdoc": {
    "methods": {}
  },
  "userdoc": {
    "methods": {
      "auctionSTATUS()": {
        "notice": "Withdraw a bid that was overbid."
      }
    }
  }
}